:100800007580FF7590FFE4F5A075B0FF7F03FE12C1
:1008100008BAC293AF80750A008F0BE4F508F5099A
:10082000F50CF50D7E007401A80D088005C333CECC
:1008300033CED8F9FFE50A5EFEE50B5F4E60080592
:1008400009E50970020508050DE50D7002050C6447
:1008500008450C70CF8509A0E50945086006C290DF
:10086000D2918004D290C2912090047F0180027FB7
:100870000020B2047E0180027E00EE5F6005120857
:0B0880008B809120B38E12088B8089C2
:10088B002094FDD2932094051208E580F8E4F50C32
:10089B00F50D7F887E131208BA050DE50D70020564
:0F08AB000CC3940AE50C940040E8C293D2922249
:0C08E500C2927F0A7E001208BAD2922252
:1008BA00E58954F04401F589E4FDFCC3ED9FEC9E03
:1008CA005018758CFF758A38C28DD28C308DFDC256
:0A08DA008CC28D0DBD00010C80E101
:0108E40022F1
:030000000208F102
:0C08F100787FE4F6D8FD75810D02080048
:00000001FF
